:020000020000FC
:1000000000C007E60093C40000E00093C50008E0CC
:100010000093C10006E00093C20003E014E0202F2B
:10002000210F36D02AE02DD02DE02BD005E012E0B4
:10003000202F312F3A9539F0022E102E019C202DC1
:1000400011243A95F8CF24D02AE01BD02DE019D006
:1000500006E012E0802F912F2227891718F0891BC4
:100060002395FBCF33E041E0532F540F022E152E82
:10007000019C602D1124262F0BD02AE002D02DE008
:1000800000D01091C00015FFFCCF2093C60008954A
:10009000322F4AE05527341718F0341B5395FBCF05
:1000A00060E3560F503311F0252FEBDF60E3360F7E
:0800B000232FE7DF0895FFCFC5
:00000001FF
